{
  "address": "0x56b895A7BA251172c0BC0D8b6636281c2DfaC1D7",
  "abi": [
    {
      "inputs": [],
      "stateMutability": "nonpayable",
      "type": "constructor"
    },
    {
      "inputs": [],
      "name": "GameOver",
      "type": "error"
    },
    {
      "inputs": [],
      "name": "InvalidSelection",
      "type": "error"
    },
    {
      "inputs": [],
      "name": "NotYourTurn",
      "type": "error"
    },
    {
      "anonymous": false,
      "inputs": [
        {
          "indexed": false,
          "internalType": "uint256",
          "name": "gameId",
          "type": "uint256"
        },
        {
          "indexed": false,
          "internalType": "address",
          "name": "teamOne",
          "type": "address"
        },
        {
          "indexed": false,
          "internalType": "address",
          "name": "teamTwo",
          "type": "address"
        }
      ],
      "name": "GameCreated",
      "type": "event"
    },
    {
      "anonymous": false,
      "inputs": [
        {
          "indexed": false,
          "internalType": "uint256",
          "name": "gameId",
          "type": "uint256"
        },
        {
          "indexed": false,
          "internalType": "address",
          "name": "winner",
          "type": "address"
        }
      ],
      "name": "GameFinished",
      "type": "event"
    },
    {
      "anonymous": false,
      "inputs": [
        {
          "indexed": false,
          "internalType": "uint256",
          "name": "seasonId",
          "type": "uint256"
        }
      ],
      "name": "SeasonEnded",
      "type": "event"
    },
    {
      "anonymous": false,
      "inputs": [
        {
          "indexed": false,
          "internalType": "uint256",
          "name": "seasonId",
          "type": "uint256"
        }
      ],
      "name": "SeasonStarted",
      "type": "event"
    },
    {
      "anonymous": false,
      "inputs": [
        {
          "indexed": true,
          "internalType": "uint256",
          "name": "gameId",
          "type": "uint256"
        },
        {
          "indexed": false,
          "internalType": "address",
          "name": "team",
          "type": "address"
        },
        {
          "indexed": false,
          "internalType": "uint8",
          "name": "column",
          "type": "uint8"
        }
      ],
      "name": "TurnTaken",
      "type": "event"
    },
    {
      "inputs": [
        {
          "internalType": "address",
          "name": "opponent",
          "type": "address"
        }
      ],
      "name": "challenge",
      "outputs": [],
      "stateMutability": "nonpayable",
      "type": "function"
    },
    {
      "inputs": [],
      "name": "endSeason",
      "outputs": [],
      "stateMutability": "nonpayable",
      "type": "function"
    },
    {
      "inputs": [
        {
          "internalType": "uint256",
          "name": "_gameId",
          "type": "uint256"
        }
      ],
      "name": "forfeit",
      "outputs": [],
      "stateMutability": "nonpayable",
      "type": "function"
    },
    {
      "inputs": [],
      "name": "gameId",
      "outputs": [
        {
          "internalType": "uint256",
          "name": "",
          "type": "uint256"
        }
      ],
      "stateMutability": "view",
      "type": "function"
    },
    {
      "inputs": [
        {
          "internalType": "uint256",
          "name": "",
          "type": "uint256"
        }
      ],
      "name": "getGame",
      "outputs": [
        {
          "internalType": "address",
          "name": "teamOne",
          "type": "address"
        },
        {
          "internalType": "address",
          "name": "teamTwo",
          "type": "address"
        },
        {
          "internalType": "address",
          "name": "winner",
          "type": "address"
        },
        {
          "internalType": "uint8",
          "name": "turn",
          "type": "uint8"
        }
      ],
      "stateMutability": "view",
      "type": "function"
    },
    {
      "inputs": [
        {
          "internalType": "uint8",
          "name": "_gameId",
          "type": "uint8"
        }
      ],
      "name": "getGameBoard",
      "outputs": [
        {
          "internalType": "uint8[7][6]",
          "name": "",
          "type": "uint8[7][6]"
        }
      ],
      "stateMutability": "view",
      "type": "function"
    },
    {
      "inputs": [
        {
          "internalType": "uint8",
          "name": "_gameId",
          "type": "uint8"
        },
        {
          "internalType": "uint8",
          "name": "columnIndex",
          "type": "uint8"
        }
      ],
      "name": "makeMove",
      "outputs": [],
      "stateMutability": "nonpayable",
      "type": "function"
    },
    {
      "inputs": [],
      "name": "seasonId",
      "outputs": [
        {
          "internalType": "uint256",
          "name": "",
          "type": "uint256"
        }
      ],
      "stateMutability": "view",
      "type": "function"
    },
    {
      "inputs": [
        {
          "internalType": "uint256",
          "name": "",
          "type": "uint256"
        }
      ],
      "name": "seasons",
      "outputs": [
        {
          "internalType": "uint256",
          "name": "startTimestamp",
          "type": "uint256"
        },
        {
          "internalType": "uint256",
          "name": "endTimestamp",
          "type": "uint256"
        },
        {
          "internalType": "bool",
          "name": "isActive",
          "type": "bool"
        }
      ],
      "stateMutability": "view",
      "type": "function"
    },
    {
      "inputs": [],
      "name": "startSeason",
      "outputs": [],
      "stateMutability": "nonpayable",
      "type": "function"
    },
    {
      "inputs": [
        {
          "internalType": "address",
          "name": "newOwner",
          "type": "address"
        }
      ],
      "name": "transferOwnership",
      "outputs": [],
      "stateMutability": "nonpayable",
      "type": "function"
    }
  ],
  "transactionHash": "0x6dc1cf2bfa06fbfb012f4d2381c835fe1bdd0a0bee406329fd44444a1c3ef6a8",
  "args": [],
  "numDeployments": 1,
  "solcInputHash": "0fdff1d5e0851114cd0405000543d7cd",
  "bytecode": "0x608060405260018055600060025534801561001957600080fd5b50600080546001600160a01b031916331790556113d78061003b6000396000f3fe608060405234801561001057600080fd5b50600436106100a95760003560e01c8063952a963311610071578063952a96331461010d5780639b33b42914610115578063a2f77bcc14610135578063d7c81b55146101b0578063f2fde38b146101b9578063f5d709a1146101cc57600080fd5b806304922960146100ae5780633dcdb672146100ca5780633ed546ab146100d45780635e24b0f1146100e757806372fb9703146100fa575b600080fd5b6100b760025481565b6040519081526020015b60405180910390f35b6100d261021b565b005b6100d26100e2366004611152565b610309565b6100d26100f5366004611181565b6103e6565b6100d26101083660046111b4565b6106c8565b6100d2610897565b6101286101233660046111e4565b6109ae565b6040516100c191906111ff565b61017d610143366004611152565b6003602052600090815260409020805460018201546002909201546001600160a01b0391821692821691811690600160a01b900460ff1684565b604080516001600160a01b0395861681529385166020850152919093169082015260ff90911660608201526080016100c1565b6100b760015481565b6100d26101c73660046111b4565b610a4c565b6101fe6101da366004611152565b60046020526000908152604090208054600182015460029092015490919060ff1683565b6040805193845260208401929092521515908201526060016100c1565b6000546001600160a01b0316331461024e5760405162461bcd60e51b81526004016102459061125d565b60405180910390fd5b600280546000908152600460205260409020015460ff166102a55760405162461bcd60e51b8152602060048201526011602482015270536561736f6e206e6f742061637469766560781b6044820152606401610245565b6002805460009081526004602090815260408083208401805460ff1916905583548352918290204260019190910155915490519081527f71b1ed1af5dc112f73a5ec9d0960e84a848b781220620ccc8fb91814ab3047be91015b60405180910390a1565b600081815260036020526040902080548291906001600160a01b031633148061033e575060018101546001600160a01b031633145b61034757600080fd5b600083815260036020526040902080546001600160a01b031633146103765780546001600160a01b0316610385565b60018101546001600160a01b03165b6002820180546001600160a01b0319166001600160a01b039290921691821790556040805186815260208101929092527fb7f35e624e036288272fbf3342c09219261ff29fdddd826989b289134e9ae535910160405180910390a150505050565b60ff82166000818152600360205260409020600201546001600160a01b0316156104235760405163df469ccb60e01b815260040160405180910390fd5b8160068160ff16111561044957604051631efccef760e11b815260040160405180910390fd5b60ff8416600090815260036020526040812060028101549091908190600160a01b90046001161561047b57600161047e565b60025b6002840154909150600160a01b9004600116156104a55782546001600160a01b03166104b4565b60018301546001600160a01b03165b6001600160a01b0316336001600160a01b0316146104e557604051631cc191eb60e31b815260040160405180910390fd5b60005b60078160ff1610156105905760058160ff16111561051957604051631efccef760e11b815260040160405180910390fd5b6000846003018260ff166006811061053357610533611280565b018860ff166007811061054857610548611280565b602081049091015460ff601f9092166101000a9004169050600081900361057d5781610573816112ac565b9250935050610590565b5080610588816112ac565b9150506104e8565b5080836003018360ff16600681106105aa576105aa611280565b018760ff16600781106105bf576105bf611280565b60208104909101805460ff938416601f9093166101000a9283029284021916919091179055600284018054600160a01b9004909116906014610600836112ac565b82546101009290920a60ff818102199093169183160217909155604080513381528983166020820152918a1692507fa6f41f711ea470b4b237d1b3e43b201e53517677308ae067a273fb1948ddbf0c910160405180910390a261066587878484610ae2565b156106bf576002830180546001600160a01b031916339081179091556040805160ff8a16815260208101929092527fb7f35e624e036288272fbf3342c09219261ff29fdddd826989b289134e9ae535910160405180910390a15b50505050505050565b600280546000908152600460205260409020015460ff1661071f5760405162461bcd60e51b8152602060048201526011602482015270536561736f6e206e6f742061637469766560781b6044820152606401610245565b806001600160a01b038116330361073557600080fd5b61073d611006565b6040805160a0810182523381526001600160a01b0385811660208084019182526000848601818152606086018281526080870189815260018054855260039586905298909320875181549088166001600160a01b031991821617825595519881018054998816999096169890981790945551600287018054945160ff16600160a01b026001600160a81b0319909516919095161792909217909255519192839290916107ee91908301906006611033565b509050506108336040518060400160405280601881526020017f47616d65206372656174656420776974682069643a2025640000000000000000815250600154610b82565b600154604080519182523360208301526001600160a01b03861682820152517f8946648bc1dbc670d3f07e2c4de91731227b6d4ccc53b8ab1e951e84d960577e9181900360600190a16001805490600061088c836112cb565b919050555050505050565b6000546001600160a01b031633146108c15760405162461bcd60e51b81526004016102459061125d565b600280546000908152600460205260409020015460ff161561091d5760405162461bcd60e51b8152602060048201526015602482015274536561736f6e20616c72656164792061637469766560581b6044820152606401610245565b60016002600082825461093091906112e4565b90915550506040805160608101825242815260006020808301828152600184860181815260028054865260048552948790209551865591519085015551928201805460ff1916931515939093179092555491519182527fe2046d333900871694b2fb421975b907ac5d93052201a0e259fa0664d9dbdf1d91016102ff565b6109b6611006565b60ff82166000908152600360208190526040808320815160c081019092529092910190600690835b82821015610a41576040805160e08101918290529085840190600790826000855b825461010083900a900460ff168152602060019283018181049485019490930390920291018084116109ff5790505050505050815260200190600101906109de565b505050509050919050565b6000546001600160a01b03163314610a765760405162461bcd60e51b81526004016102459061125d565b6001600160a01b038116610ac05760405162461bcd60e51b815260206004820152601160248201527024b73b30b634b2103732bb9037bbb732b960791b6044820152606401610245565b600080546001600160a01b0319166001600160a01b0392909216919091179055565b600080610af186868686610bcb565b905080600403610b05576001915050610b7a565b6000610b1387878787610c8b565b905080600403610b2857600192505050610b7a565b6000610b3688888888610d36565b905080600403610b4c5760019350505050610b7a565b6000610b5a89898989610e3c565b905080600403610b71576001945050505050610b7a565b60009450505050505b949350505050565b610bc78282604051602401610b989291906112fd565b60408051601f198184030181529190526020810180516001600160e01b0316632d839cb360e21b179052610f6b565b5050565b6000600181610bda8683611352565b90505b60078160ff161015610c2357610bf587868387610f77565b15610c0c5781610c04816112cb565b925050610c11565b610c23565b80610c1b816112ac565b915050610bdd565b5060ff851615610c82576000610c3a60018761136b565b90505b610c4987868387610f77565b15610c605781610c58816112cb565b925050610c65565b610c80565b60ff811615610c805780610c7881611384565b915050610c3d565b505b95945050505050565b6000600181610c9a8583611352565b90505b60068160ff161015610ce357610cb587828887610f77565b15610ccc5781610cc4816112cb565b925050610cd1565b610ce3565b80610cdb816112ac565b915050610c9d565b5060ff841615610c82576000610cfa60018661136b565b90505b610d0987828887610f77565b15610c605781610d18816112cb565b92505060ff811615610c805780610d2e81611384565b915050610cfd565b6000600181610d458583611352565b90505b610d5385600661136b565b60ff168160ff161015610d9a57610d6c87828387610f77565b15610d835781610d7b816112cb565b925050610d88565b610d9a565b80610d92816112ac565b915050610d48565b5060ff841615801590610daf575060ff851615155b15610c82576000610dc160018661136b565b90506000610dd060018861136b565b90505b610ddf88838388610f77565b15610df65782610dee816112cb565b935050610dfb565b610e30565b60ff82161580610e0c575060ff8116155b610e305781610e1a81611384565b9250508080610e2890611384565b915050610dd3565b50509050949350505050565b6000600160ff841615610ed7576000610e5660018661136b565b90506000610e65876001611352565b90505b60078160ff161015610ed457610e8088838388610f77565b15610e975782610e8f816112cb565b935050610e9c565b610ed4565b60ff82161580610eb0575060068160ff1610155b610ed45781610ebe81611384565b9250508080610ecc906112ac565b915050610e68565b50505b60ff851615610c82576000610eed856001611352565b90506000610efc60018861136b565b90505b60068260ff16108015610f10575060015b15610e3057610f2188838388610f77565b15610df65782610f30816112cb565b93505060068260ff16101580610f47575060ff8116155b610e305781610f55816112ac565b9250508080610f6390611384565b915050610eff565b610f7481610fe5565b50565b600080600360008760ff16815260200190815260200160002060030190508260ff16818660ff1660068110610fae57610fae611280565b018560ff1660078110610fc357610fc3611280565b602081049091015460ff601f9092166101000a90041614915050949350505050565b60006a636f6e736f6c652e6c6f679050600080835160208501845afa505050565b6040518060c001604052806006905b61101d61107d565b8152602001906001900390816110155790505090565b826006810192821561106d579160200282015b8281111561106d57825161105d908390600761109b565b5091602001919060010190611046565b5061107992915061112a565b5090565b6040518060e001604052806007906020820280368337509192915050565b60018301918390821561111e5791602002820160005b838211156110ef57835183826101000a81548160ff021916908360ff16021790555092602001926001016020816000010492830192600103026110b1565b801561111c5782816101000a81549060ff02191690556001016020816000010492830192600103026110ef565b505b5061107992915061113e565b80821115611079576000815560010161112a565b80821115611079576000815560010161112a565b60006020828403121561116457600080fd5b5035919050565b803560ff8116811461117c57600080fd5b919050565b6000806040838503121561119457600080fd5b61119d8361116b565b91506111ab6020840161116b565b90509250929050565b6000602082840312156111c657600080fd5b81356001600160a01b03811681146111dd57600080fd5b9392505050565b6000602082840312156111f657600080fd5b6111dd8261116b565b610540810181836000805b600681101561125357825184835b600781101561123a57825160ff16825260209283019290910190600101611218565b50505060e093909301926020929092019160010161120a565b5050505092915050565b6020808252600990820152682737ba1037bbb732b960b91b604082015260600190565b634e487b7160e01b600052603260045260246000fd5b634e487b7160e01b600052601160045260246000fd5b600060ff821660ff81036112c2576112c2611296565b60010192915050565b6000600182016112dd576112dd611296565b5060010190565b808201808211156112f7576112f7611296565b92915050565b604081526000835180604084015260005b8181101561132b576020818701810151606086840101520161130e565b506000606082850101526060601f19601f8301168401019150508260208301529392505050565b60ff81811683821601908111156112f7576112f7611296565b60ff82811682821603908111156112f7576112f7611296565b600060ff82168061139757611397611296565b600019019291505056fea2646970667358221220b502ba75dc4ecd73c74891492dff6f8947d1c9bf28f32e8cdc38309a775d67e964736f6c63430008110033",
  "devdoc": {
    "kind": "dev",
    "methods": {
      "challenge(address)": {
        "details": "opponent will go firstgame id is increated each time a new game is createdseason is over when timer (soon to be added) is past",
        "params": {
          "opponent": "challened"
        }
      },
      "getGameBoard(uint8)": {
        "params": {
          "_gameId": "id of game"
        },
        "returns": {
          "_0": "game board"
        }
      },
      "makeMove(uint8,uint8)": {
        "params": {
          "_gameId": "id of game",
          "columnIndex": "selected column for move"
        }
      },
      "transferOwnership(address)": {
        "params": {
          "newOwner": "address of new owner"
        }
      }
    },
    "stateVariables": {
      "gameId": {
        "details": "Initialised at 1 because it makes the first transaction slightly cheaper."
      },
      "getGame": {
        "details": "This automatically generates a getter for us, which will return `Game.player1`, `Game.player2`, `Game.moves`, and `Game.finished` (the arrays are skipped)"
      },
      "seasons": {
        "details": "This automatically generates a getter for us, which will return `Game.player1`, `Game.player2`, `Game.moves`, and `Game.finished` (the arrays are skipped)"
      }
    },
    "version": 1
  },
  "userdoc": {
    "errors": {
      "GameOver()": [
        {
          "notice": "revert if game has been completed"
        }
      ],
      "InvalidSelection()": [
        {
          "notice": "revert if column choice is invalid"
        }
      ],
      "NotYourTurn()": [
        {
          "notice": "revert if caller isn't current team"
        }
      ]
    },
    "events": {
      "GameCreated(uint256,address,address)": {
        "notice": "emiited when game is created"
      },
      "GameFinished(uint256,address)": {
        "notice": "emitted when game is complete"
      },
      "SeasonEnded(uint256)": {
        "notice": "emitted when a season ends"
      },
      "SeasonStarted(uint256)": {
        "notice": "emitted when a new season starts"
      },
      "TurnTaken(uint256,address,uint8)": {
        "notice": "emitted after turn is successfully taken"
      }
    },
    "kind": "user",
    "methods": {
      "challenge(address)": {
        "notice": "challenge an address to a game of connect four"
      },
      "endSeason()": {
        "notice": "end the current season"
      },
      "forfeit(uint256)": {
        "notice": "Abandons the singleton game of msg.sender, if it exists."
      },
      "gameId()": {
        "notice": "Used as a counter for the next game index."
      },
      "getGame(uint256)": {
        "notice": "An indexed list of games"
      },
      "getGameBoard(uint8)": {
        "notice": "get game board"
      },
      "makeMove(uint8,uint8)": {
        "notice": "current team plays a turn"
      },
      "seasonId()": {
        "notice": "Used as a counter for the next season index."
      },
      "seasons(uint256)": {
        "notice": "An indexed list of seasons"
      },
      "startSeason()": {
        "notice": "start a new season"
      },
      "transferOwnership(address)": {
        "notice": "transfer ownership of contract"
      }
    },
    "version": 1
  },
  "storageLayout": {
    "storage": [
      {
        "astId": 13,
        "contract": "contracts/ConnectFour/ConnectFourS.sol:ConnectFourS",
        "label": "owner",
        "offset": 0,
        "slot": "0",
        "type": "t_address"
      },
      {
        "astId": 74,
        "contract": "contracts/ConnectFour/ConnectFourS.sol:ConnectFourS",
        "label": "gameId",
        "offset": 0,
        "slot": "1",
        "type": "t_uint256"
      },
      {
        "astId": 78,
        "contract": "contracts/ConnectFour/ConnectFourS.sol:ConnectFourS",
        "label": "seasonId",
        "offset": 0,
        "slot": "2",
        "type": "t_uint256"
      },
      {
        "astId": 84,
        "contract": "contracts/ConnectFour/ConnectFourS.sol:ConnectFourS",
        "label": "getGame",
        "offset": 0,
        "slot": "3",
        "type": "t_mapping(t_uint256,t_struct(Game)63_storage)"
      },
      {
        "astId": 90,
        "contract": "contracts/ConnectFour/ConnectFourS.sol:ConnectFourS",
        "label": "seasons",
        "offset": 0,
        "slot": "4",
        "type": "t_mapping(t_uint256,t_struct(Season)70_storage)"
      }
    ],
    "types": {
      "t_address": {
        "encoding": "inplace",
        "label": "address",
        "numberOfBytes": "20"
      },
      "t_array(t_array(t_uint8)7_storage)6_storage": {
        "base": "t_array(t_uint8)7_storage",
        "encoding": "inplace",
        "label": "uint8[7][6]",
        "numberOfBytes": "192"
      },
      "t_array(t_uint8)7_storage": {
        "base": "t_uint8",
        "encoding": "inplace",
        "label": "uint8[7]",
        "numberOfBytes": "32"
      },
      "t_bool": {
        "encoding": "inplace",
        "label": "bool",
        "numberOfBytes": "1"
      },
      "t_mapping(t_uint256,t_struct(Game)63_storage)": {
        "encoding": "mapping",
        "key": "t_uint256",
        "label": "mapping(uint256 => struct ConnectFourS.Game)",
        "numberOfBytes": "32",
        "value": "t_struct(Game)63_storage"
      },
      "t_mapping(t_uint256,t_struct(Season)70_storage)": {
        "encoding": "mapping",
        "key": "t_uint256",
        "label": "mapping(uint256 => struct ConnectFourS.Season)",
        "numberOfBytes": "32",
        "value": "t_struct(Season)70_storage"
      },
      "t_struct(Game)63_storage": {
        "encoding": "inplace",
        "label": "struct ConnectFourS.Game",
        "members": [
          {
            "astId": 50,
            "contract": "contracts/ConnectFour/ConnectFourS.sol:ConnectFourS",
            "label": "teamOne",
            "offset": 0,
            "slot": "0",
            "type": "t_address"
          },
          {
            "astId": 52,
            "contract": "contracts/ConnectFour/ConnectFourS.sol:ConnectFourS",
            "label": "teamTwo",
            "offset": 0,
            "slot": "1",
            "type": "t_address"
          },
          {
            "astId": 54,
            "contract": "contracts/ConnectFour/ConnectFourS.sol:ConnectFourS",
            "label": "winner",
            "offset": 0,
            "slot": "2",
            "type": "t_address"
          },
          {
            "astId": 56,
            "contract": "contracts/ConnectFour/ConnectFourS.sol:ConnectFourS",
            "label": "turn",
            "offset": 20,
            "slot": "2",
            "type": "t_uint8"
          },
          {
            "astId": 62,
            "contract": "contracts/ConnectFour/ConnectFourS.sol:ConnectFourS",
            "label": "board",
            "offset": 0,
            "slot": "3",
            "type": "t_array(t_array(t_uint8)7_storage)6_storage"
          }
        ],
        "numberOfBytes": "288"
      },
      "t_struct(Season)70_storage": {
        "encoding": "inplace",
        "label": "struct ConnectFourS.Season",
        "members": [
          {
            "astId": 65,
            "contract": "contracts/ConnectFour/ConnectFourS.sol:ConnectFourS",
            "label": "startTimestamp",
            "offset": 0,
            "slot": "0",
            "type": "t_uint256"
          },
          {
            "astId": 67,
            "contract": "contracts/ConnectFour/ConnectFourS.sol:ConnectFourS",
            "label": "endTimestamp",
            "offset": 0,
            "slot": "1",
            "type": "t_uint256"
          },
          {
            "astId": 69,
            "contract": "contracts/ConnectFour/ConnectFourS.sol:ConnectFourS",
            "label": "isActive",
            "offset": 0,
            "slot": "2",
            "type": "t_bool"
          }
        ],
        "numberOfBytes": "96"
      },
      "t_uint256": {
        "encoding": "inplace",
        "label": "uint256",
        "numberOfBytes": "32"
      },
      "t_uint8": {
        "encoding": "inplace",
        "label": "uint8",
        "numberOfBytes": "1"
      }
    }
  }
}